:10080000535443313546324B3630533220554152E2
:10081000543120546573742050726772616D6D6538
:10082000210D0A00535443313546324B3630533292
:1008300020554152543220546573742050726772AF
:08084000616D6D65210D0A00D8
:10084800E4F593F594F591F592F595F596F5B1F5EE
:10085800B2F5B3F5B4F5C9F5CAF5CBF5CCF5E1F5C4
:10086800E27F0112088F7F0212097B120A44120AE2
:1008780050D2AF7BFF7A087900120A087BFF7A080A
:070888007924120A1E80FE14
:0F0A34007DA57C06ED1D70011C144C70F7DFF1E1
:010A43002290
:030023000208D3FD
:1008D300C0E0C0D075D000C000C00730981CC298DB
:1008E300AF99E51825E02421F8760008A607051836
:1008F300E518C394204003751800309904C299C2C7
:0A09030000D007D000D0D0D0E032C1
:0300430002095956
:10095900C0E0E59A30E00E539AFE859B0985099B14
:10096900E59A30E1FBE59A30E105539AFDC201D0E1
:02097900E0326A
:03008B0002090D5A
:09090D00C0E0C0D075D000C007A5
:10091600AFAC530701BF010E53ACFE85AD0A850A85
:06092600ADE5AC30E1FB81
:07092C00D007D0D0D0E0326B
:030093000209332C
:09093300C0E0C0D075D000C0077F
:10093C00AF84530701BF010E5384FE85850B850BD5
:06094C0085E58430E1FBAB
:07095200D007D0D0D0E03245
:0C0A440075AC1043AF08E4F5BAD2AF2245
:0C0A500075841043AF10E4F5BAD2AF2259
:10099D00E4FE53ACFD740C2EF8E6F5ADAFAC530789
:0B09AD0002EF60F853ACFD0EBE06EA3E
:0109B800221C
:1009B900E4FE5384FD74122EF8E6F585AF845307DF
:0B09C90002EF60F85384FD0EBE06EA4A
:0109D4002200
:100A08001209EF6010F599D2002000FD740129F950
:060A1800E43AFA80EB2233
:100A1E001209EF6010F59BD2012001FD740129F936
:060A2E00E43AFA80EB221D
:1009D500AD07AC06538EEF538EF7438E048CD6AF1E
:0A09E500058FD753AFFB438E10229D
:10088F00BF020C438E017FD07EFF1209D5801BC2A1
:10089F008E538EFE438E405389BF5389CF758DFF84
:1008AF00758BD0C2AB538FFDD28EE598543F444029
:1008BF00F598D2ACD29C53A23F43A280C200E4F57C
:0408CF001AF51822DC
:10097B00EF6402701C7FD07EFF1209D5539A7F4320
:10098B00AF01439A1053BAFE43BA01C201F51BF5EE
:02099B0019221F
:03000000020A5C95
:0C0A5C00787FE4F6D8FD75816002084840
:1009EF00BB010689828A83E0225002E722BBFE0206
:0909FF00E32289828A83E4932239
:00000001FF
