:1010EF00535443313546324B3630533220554152EB
:1010FF00543120546573742050726772616D6D6541
:10110F00210D0A00535443313546324B363053329A
:10111F0020554152543220546573742050726772B7
:0F112F00616D6D65210D0A0073746174653A007E
:06141500042400000000A9
:100CB300E4F593F594F591F592F595F596F5B1F57F
:100CC300B2F5B3F5B4F5C9F5CAF5CBF5CCF5E1F555
:100CD300E2120F417F0112113E7F021212CF121353
:100CE3008A12139FD2AFC2A07BFF7A1079EF12133F
:100CF3005E7BFF7A1179131213747B9B7A007D104C
:100D03007C00E4FF1211827B9B7A007D107C007FC4
:100D1300011211827B9B7A007D107C007F021211ED
:100D2300827B9B7A007D107C007F03121182E52277
:100D3300B402FB752201753C00852B3D753E008591
:100D43002D3FE52E70031213E7E52EB401031213B2
:100D5300C5E52EB402031213D6E4F522F523754834
:100D6300FF754911754A37FB7A00794012085CAE6A
:100D73003CAF3D7C007D0A120BA2EF2430F546AE5A
:100D83003CAF3D7C007D0A120BA2ED2430F5477584
:100D93004820AE3EAF3F7C007D0A120BA2EF243009
:100DA300F549AE3EAF3F7C007D0A120BA2ED243025
:100DB300F54A754B20E52E2430F54C754D0A754EDA
:0D0DC3000D7B007A00794012135E020D31A5
:10132900C28CD2A0D2A95389FC5389FB538FFE43A7
:0B1339008E80758CF7758A5DD28C22C7
:03000B00020DD013
:100DD000C0E0C0F0C083C082C0D075D000C000C0E9
:100DE00001C002C003C004C005C006C007E5272437
:100DF00001F527E43526F526E43525F525E43524E7
:100E0000F524AE3CAF3DE4FCFDAB27AA26A925A8FE
:100E100024C3120C5A50028001C392F8AE3EAF3F79
:100E2000E4FCFDAB27AA26A925A824C3120C5A501E
:100E3000028001C392F9E47F887E13FDFCAB27AAF0
:100E400026A925A824C3120C5A50028001C392A0DF
:100E5000E47F107E27FDFCAB27AA26A925A824D372
:100E6000120C5A400C752700752600752500752454
:100E700000D007D006D005D004D003D002D001D0D6
:0C0E800000D0D0D082D083D0F0D0E0327F
:100F4100E4F54AF549F54BF54CF54DF54575464047
:100F5100F5477548C0FB7A007945FF120E8C53B1F5
:100F61007F53B27FE4F54AF549F54BF54CF54DF564
:100F710045754640F5477548C0FB7A0079457F01C4
:100F8100120E8C5395FD5396FDE4F54AF549F54B48
:100F9100F54CF54DF545754640F5477548C0FB7A6A
:100FA1000079457F02120E8C5395FB5396FBE4F5B5
:100FB1004AF549F54BF54CF54DF545754640F54774
:100FC1007548C0FB7A0079457F03120E8C5395F763
:100FD1005396F775D6FF75D7D4758E147D007C01B5
:0B0FE1007F1012128943F58053F5BF0A
:010FEC0022E2
:0F13F8007DA57C06ED1D70011C144C70F7DFF114
:0114070022C2
:03002300021202C4
:10120200C0E0C0D075D000C000C00730981CC298A2
:10121200AF99E51825E02459F8760008A6070518C5
:10122200E518C394204003751800309904C299C28E
:0A12320009D007D000D0D0D0E03280
:030043000212ADF9
:1012AD00C0E0E59A30E00E539AFE859B0985099BB7
:1012BD00E59A30E1FBE59A30E105539AFDC20AD07B
:0212CD00E0320D
:03008B00021079E7
:0B107900C0E0C0D075D000C000C00770
:10108400AFAC530701EF6401705885AD0AE50AB4AB
:101094004115E5237011E522700D752201052385A4
:1010A4000AADE5AC30E1FBE50AB44213E522B40134
:1010B4000E75220275230075AD50E5AC30E1FBE5F9
:1010C40022B4011BE523C3940A501474282523F881
:1010D400A60A0523E5232430F5ADE5AC30E1FB5346
:0210E400ACFE60
:0910E600D007D000D0D0D0E032D8
:03009300021263F3
:09126300C0E0C0D075D000C00746
:10126C00AF84530701BF010E5384FE85850B850B9C
:06127C0085E58430E1FB72
:07128200D007D0D0D0E0320C
:10138A0075AC5075D4FF75D5D043D10A43AF08E484
:05139A00F5BAD2AF22FC
:10139F0075845075D2FF75D3D043D1A043AF10E4FD
:0513AF00F5BAD2AF22E7
:1012F100E4FE53ACFD740C2EF8E6F5ADAFAC53072C
:0B13010002EF60F853ACFD0EBE06EAE0
:01130C0022BE
:10130D00E4FE5384FD74122EF8E6F585AF84530781
:0B131D0002EF60F85384FD0EBE06EAEC
:0113280022A2
:10135E00120B5C6010F599D2092009FD740129F970
:06136E00E43AFA80EB22D4
:10137400120B5C6010F59BD20A200AFD740129F956
:06138400E43AFA80EB22BE
:10134400AD07AC06538EEF538EF7438E048CD6AFA5
:0A135400058FD753AFFB438E102224
:10113E00BF020C438E017FD07EFF121344801BC270
:10114E008E538EFE438E405389BF5389CF758DFFCC
:10115E00758BD0C2AB538FFDD28EE598543F444071
:10116E00F598D2ACD29C53A23F43A280C209E4F5BB
:04117E001AF5182224
:1012CF00EF6402701C7FD07EFF121344539A7F434A
:1012DF00AF01439A1053BAFE43BA01C20AF51BF588
:0212EF001922C2
:02128900A907B3
:10128B0043BA807BF27AFF8B828A83E9F07BF08B07
:10129B0082ECF00BBB00010A8B828A83EDF053BA10
:0112AB007FC3
:0112AC00221F
:020E8C008F4E87
:100E8E0043BA80E54E75F010A42400FFE5F034FF60
:100E9E00AD07FC120BF7E5F08D828C83F00DBD00D3
:100EAE00010C120BF78D828C83F00DBD00010C909E
:100EBE000002120C22E5F08D828C83F00DBD000134
:100ECE000C900002120C228D828C83F00DBD00015D
:100EDE000C900006120B7525E025E05404FF9000DF
:100EEE0005120B7554084FFF900008120B75FE2566
:100EFE00E054024FFF900007120B7554014F8D8284
:100F0E008C83F0AF4E7401A807088002C333D8FC5F
:100F1E00FF42F5900004120B755401FEAD4EA8056C
:100F2E00088002C333D8FCFEEFF455F14EF5F153B1
:020F3E00BA7F78
:010F4000228E
:041182008C458D46C5
:1011860043BA80EF75F010A42400FFE5F034FFADFC
:1011960007FCE5458D828C83F00DBD00010C8D8228
:1011A6008C83E546F00DBD00010C8D828C83EAF040
:0E11B6000DBD00010C8D828C83EBF053BA7FCF
:0111C4002208
:0300B3000211C572
:1011C500C0E0E5F630E60353F6BFE5F630E003533D
:1011D500F6FEE5F630E10353F6FDE5F630E203539E
:1011E500F6FBE5F630E30353F6F7E5F630E4035393
:0D11F500F6EFE5F630E50353F6DFD0E0320B
:0300BB0002140824
:0D140800C0E0E5F730E00353F7FED0E0321E
:1013B400C2E8C2E9C2EAC2EBC2ECC2EDC2EEC2EFBD
:0113C4002206
:1013C500D2E8C2E9D2EAC2EBD2ECC2EDD2EEC2EF6C
:0113D50022F5
:1013D600C2E8D2E9C2EAD2EBC2ECD2EDC2EED2EF5B
:0113E60022E4
:1013E700C2E8C2E9C2EAC2EBC2ECC2EDC2EEC2EF8A
:0113F70022D3
:03000000020FEDFF
:0C0FED00787FE4F6D8FD7581980210347E
:100B5C00BB010689828A83E0225002E722BBFE0297
:090B6C00E32289828A83E49322CA
:100B7500BB010CE58229F582E5833AF583E0225035
:100B850006E92582F8E622BBFE06E92582F8E2227F
:0D0B9500E58229F582E5833AF583E4932299
:100BA200BC000BBE0029EF8DF084FFADF022E4CC37
:100BB200F875F008EF2FFFEE33FEEC33FCEE9DEC00
:100BC200984005FCEE9DFE0FD5F0E9E4CEFD22ED46
:100BD200F8F5F0EE8420D21CFEADF075F008EF2F90
:100BE200FFED33FD4007985006D5F0F222C398FD81
:050BF2000FD5F0EA221E
:100BF700BB010A89828A83E0F5F0A3E022500687C9
:100C0700F009E71922BBFE07E3F5F009E31922898A
:0B0C1700828A83E493F5F074019322BD
:100C2200BB0110E58229F582E5833AF583E0F5F010
:100C3200A3E0225009E92582F886F008E622BBFEED
:100C42000AE92582F8E2F5F008E222E5832AF58333
:080C5200E993F5F0A3E99322F8
:100C5A00EB9FF5F0EA9E42F0E99D42F0E89C45F0F0
:010C6A002267
:10080000E5542448F8E60554227845300702784834
:10081000E475F001120C7D020B5C2000EB7F2ED200
:10082000008018EF540F2490D43440D4FF30040BD0
:10083000EF24BFB41A0050032461FFE55560021590
:10084000550558E5587002055730070D7845E47591
:10085000F001120C7DEF020C6B02123C7403D20704
:100860008003E4C207F5548B458A468947E4F55571
:10087000F557F558E55560077F2012083B80F57560
:1008800056FFC201C200C202C203C205C206C208AC
:10089000120809FF700D3007057F0012084CAF5891
:1008A000AE5722B4255FC2D5C204120809FF24D076
:1008B000B40A00501A75F00A785530D50508B6FF0D
:1008C0000106C6A426F620D5047002D20380D924DE
:1008D000CFB41A00EF5004C2E5D204020A4CD20190
:1008E00080C6D20080C0D20280BCD2D580BAD205E8
:1008F00080B47F2012083B2002077401B5550040E8
:10090000F1120800FF12083B020874D208D20680D8
:1009100095120800FB120800FA120800F94A4B7001
:1009200006791D7A0B7BFF20022EE555602A7E009A
:100930008E82758300120B7560060EEE655670F0A0
:10094000C2D5EBC0E0EAC0E0E9C0E0EE120A93D005
:10095000E0F9D0E0FAD0E0FB120B5CFF60AAEBC03C
:10096000E0EAC0E0E9C0E012083BD0E02401F9D0A1
:10097000E03400FAD0E0FBE5560460DCD556D980BF
:10098000877BFF7A0A798FD202809C791080027966
:1009900008C206C2088008D2D5790A8004790AC242
:1009A000D5E556047002F556E4FAFDFEFF12080084
:1009B000FC7B08200113120800FD7B1030000A1296
:1009C0000800FE120800FF7B20EC3382D592D55040
:1009D00013C3E43000069FFFE49EFEE42001039D64
:1009E000FDE49CFCE4CBF8C201EC700CCFCECDCC86
:1009F000E824F8F870F38017C3EF33FFEE33FEED11
:100A000033FDEC33FCEB33FB994002FB0FD8E9EBF1
:100A1000300105F8D0E0C448B201C0E00AEC4D4E08
:100A20004F78207B0070C2EAB5560040BCC0E0128F
:100A30000A95D0F0D0E0200104C4C0E0C4B201C0E7
:100A4000F0120824D0F0D5F0EB020874120C8D09D6
:100A50001153098B5808E24C08DE42098F4F099761
:0F0A60004409974908F743099D550981460981C3
:100A6F00450981470B3D5008E62D08EA2E090D2B4D
:100A7F0008EE23090B200B262A08A64800000905BB
:100A8F003F3F3F00790AA2D5200314300509B91062
:100A9F00020404B9080104A2D52006025001042063
:100AAF0002689202B555005034C0E07F2030031920
:100ABF007F30A20272067205500F120AECC202C2F8
:100ACF0006C205C2087F30800F300503E9C0E0126F
:100ADF00083B300503D0E0F9D0E0B555CC30051711
:100AEF007F30B9100C12083B7F583004077F788095
:100AFF0003B9080312083B3002057F2D02083B7F24
:100B0F00202008F87F2B2006F322920280CF286E38
:100B1F00756C6C2900D2011208003001F8C20178FF
:100B2F005530D50108F60208A62D50434958120832
:100B3F00002403B405004001E4900B389312082CF5
:0D0B4F00743A12082CD20375550402098B6C
:100FF900020CB3E493A3F8E493A34003F68001F24F
:1010090008DFF48029E493A3F85407240CC8C333F8
:10101900C4540F4420C8834004F456800146F6DFC7
:10102900E4800B0102040810204080901415E47E2E
:10103900019360BCA3FF543F30E509541FFEE493BC
:10104900A360010ECF54C025E060A840B8E493A383
:10105900FAE493A3F8E493A3C8C582C8CAC583CAAE
:10106900F0A3C8C582C8CAC583CADFE9DEE780BE66
:01141B0000D0
:100C6B00BB010689828A83F0225002F722BBFE0168
:020C7B00F32262
:100C7D00FAE6FB0808E6F925F0F618E6CA3AF62278
:100C8D00D083D082F8E4937012740193700DA3A3F6
:100C9D0093F8740193F5828883E47374029368600A
:060CAD00EFA3A3A380DF0A
:10123C00EFB40A07740D121247740A309811A8996A
:10124C00B8130CC2983098FDA899C298B811F63012
:07125C0099FDC299F59922EA
:00000001FF
