:100A9C00535443313546324B363053322055415244
:100AAC00543120546573742050726772616D6D659A
:100ABC00210D0A00535443313546324B36305332F4
:100ACC002055415254322054657374205072677211
:080ADC00616D6D65210D0A003A
:100A0A00E4F593F594F591F592F595F596F5B1F52A
:100A1A00B2F5B3F5B4F5C9F5CAF5CBF5CCF5E1F500
:100A2A00E21208B57F01120AE47F02120C74120D59
:100A3A0014120D29D2AF7BFF7A0A799C120CE87B3B
:100A4A00FF7A0A79C0120CFE7B9B7A007D107C002B
:100A5A00E4FF120B287B9B7A007D107C007F011239
:100A6A000B287B9B7A007D107C007F02120B287B6F
:100A7A009B7A007D107C007F03120B28C2A0120D06
:100A8A004F7FE8120D82D2A0120D717FE8120D82FB
:020A9A0080EAF0
:1008B500E4F526F525F527F528F529F521752240D6
:1008C500F5237524C0FB7A007921FF12080053B186
:1008D5007F53B27FE4F526F525F527F528F529F5AB
:1008E50021752240F5237524C0FB7A0079217F010B
:1008F5001208005395FD5396FDE4F526F525F527D9
:10090500F528F529F521752240F5237524C0FB7AD4
:100915000079217F021208005395FB5396FBE4F5FD
:1009250026F525F527F528F529F521752240F52326
:100935007524C0FB7A0079217F031208005395F7CF
:100945005396F775D6FF75D7D4758E147D007C0147
:0B0955007F10120C2E43F58053F5BFFD
:010960002274
:0F0D82007DA57C06ED1D70011C144C70F7DFF190
:010D9100223F
:03002300020BA825
:100BA800C0E0C0D075D000C000C00730981CC29803
:100BB800AF99E51825E0242BF8760008A607051854
:100BC800E518C394204003751800309904C299C2EF
:0A0BD80000D007D000D0D0D0E032EA
:03004300020C525A
:100C5200C0E0E59A30E00E539AFE859B0985099B18
:100C6200E59A30E1FBE59A30E105539AFDC201D0E5
:020C7200E0326E
:03008B00020BE283
:090BE200C0E0C0D075D000C007CE
:100BEB00AFAC530701BF010E53ACFE85AD0A850AAE
:060BFB00ADE5AC30E1FBAA
:070C0100D007D0D0D0E03293
:03009300020C0854
:090C0800C0E0C0D075D000C007A7
:100C1100AF84530701BF010E5384FE85850B850BFD
:060C210085E58430E1FBD3
:070C2700D007D0D0D0E0326D
:100D140075AC5075D4FF75D5D043D10A43AF08E400
:050D2400F5BAD2AF2278
:100D290075845075D2FF75D3D043D1A043AF10E479
:050D3900F5BAD2AF2263
:100C9600E4FE53ACFD740C2EF8E6F5ADAFAC53078D
:0B0CA60002EF60F853ACFD0EBE06EA42
:010CB1002220
:100CB200E4FE5384FD74122EF8E6F585AF845307E3
:0B0CC20002EF60F85384FD0EBE06EA4E
:010CCD002204
:100CE8001209616010F599D2002000FD740129F9FC
:060CF800E43AFA80EB2251
:100CFE001209616010F59BD2012001FD740129F9E2
:060D0E00E43AFA80EB223A
:100CCE00AD07AC06538EEF538EF7438E048CD6AF22
:0A0CDE00058FD753AFFB438E1022A1
:100AE400BF020C438E017FD07EFF120CCE801BC24E
:100AF4008E538EFE438E405389BF5389CF758DFF2D
:100B0400758BD0C2AB538FFDD28EE598543F4440D1
:100B1400F598D2ACD29C53A23F43A280C200E4F524
:040B24001AF5182284
:100C7400EF6402701C7FD07EFF120CCE539A7F4328
:100C8400AF01439A1053BAFE43BA01C201F51BF5F2
:020C9400192223
:020C2E00A90714
:100C300043BA807BF27AFF8B828A83E9F07BF08B68
:100C400082ECF00BBB00010A8B828A83EDF053BA71
:010C50007F24
:010C51002280
:020800008F2A3D
:1008020043BA80E52A75F010A42400FFE5F034FF16
:10081200AD07FC1209A7E5F08D828C83F00DBD00B7
:10082200010C1209A78D828C83F00DBD00010C9082
:1008320000021209D2E5F08D828C83F00DBD000119
:100842000C9000021209D28D828C83F00DBD000142
:100852000C90000612097A25E025E05404FF90006E
:100862000512097A54084FFF90000812097AFE25F2
:10087200E054024FFF90000712097A54014F8D8213
:100882008C83F0AF2A7401A807088002C333D8FC16
:10089200FF42F590000412097A5401FEAD2AA80520
:1008A200088002C333D8FCFEEFF455F14EF5F15344
:0208B200BA7F0B
:0108B4002221
:040B28008C218D226D
:100B2C0043BA80EF75F010A42400FFE5F034FFAD5C
:100B3C0007FCE5218D828C83F00DBD00010C8D82AC
:100B4C008C83E522F00DBD00010C8D828C83EAF0C4
:0E0B5C000DBD00010C8D828C83EBF053BA7F2F
:010B6A002268
:0300B300020B6BD2
:100B6B00C0E0E5F630E60353F6BFE5F630E003539D
:100B7B00F6FEE5F630E10353F6FDE5F630E20353FE
:100B8B00F6FBE5F630E30353F6F7E5F630E40353F3
:0D0B9B00F6EFE5F630E50353F6DFD0E0326B
:0300BB00020D92A1
:0D0D9200C0E0E5F730E00353F7FED0E0329B
:100D3E00C2E8C2E9C2EAC2EBC2ECC2EDC2EEC2EF39
:010D4E002282
:100D4F00D2E8C2E9D2EAC2EBD2ECC2EDD2EEC2EFE8
:010D5F002271
:100D6000C2E8D2E9C2EAD2EBC2ECD2EDC2EED2EFD7
:010D70002260
:100D7100C2E8C2E9C2EAC2EBC2ECC2EDC2EEC2EF06
:010D8100224F
:03000000020D9F4F
:0C0D9F00787FE4F6D8FD75816A020A0A2C
:10096100BB010689828A83E0225002E722BBFE0294
:09097100E32289828A83E49322C7
:10097A00BB010CE58229F582E5833AF583E0225032
:10098A0006E92582F8E622BBFE06E92582F8E2227C
:0D099A00E58229F582E5833AF583E4932296
:1009A700BB010A89828A83E0F5F0A3E0225006871B
:1009B700F009E71922BBFE07E3F5F009E3192289DD
:0B09C700828A83E493F5F07401932210
:1009D200BB0110E58229F582E5833AF583E0F5F063
:1009E200A3E0225009E92582F886F008E622BBFE40
:1009F2000AE92582F8E2F5F008E222E5832AF58386
:080A0200E993F5F0A3E993224A
:00000001FF
