:10080000535443313546324B3630533220554152E2
:10081000543120546573742050726772616D6D6538
:10082000210D0A00535443313546324B3630533292
:1008300020554152543220546573742050726772AF
:08084000616D6D65210D0A00D8
:10088C00E4F593F594F591F592F595F596F5B1F5AA
:10089C00B2F5B3F5B4F5C9F5CAF5CBF5CCF5E1F580
:1008AC00E27F011208487F02120939D2AF7BFF7A2E
:1008BC000879001209FC7BFF7A087924120A12804D
:0108CC00FE2D
:0F0A52007DA57C06ED1D70011C144C70F7DFF1C3
:010A61002272
:030023000208CD03
:1008CD00C0E0C0D075D000C000C00730981CC298E1
:1008DD00AF99E51525E02421F8760008A607051542
:1008ED00E515C394204003751500309904C299C2D3
:0A08FD0000D007D000D0D0D0E032C8
:03004300020907A8
:10090700C0E0C0D0E59A30E01A539AFE859B08856F
:10091700089BE59A30E1FB0516E516C394204003D2
:10092700751600E59A30E105539AFDC201D0D0D083
:02093700E032AC
:03008B00020993D4
:09099300C0E0C0D075D000C0071F
:0B099C00AFAC530701BF010353ACFEDA
:0709A700D007D0D0D0E032F0
:030093000209AEB1
:0909AE00C0E0C0D075D000C00704
:0B09B700AF84530701BF01035384FE0F
:0709C200D007D0D0D0E032D5
:100A280075AC5075D4FF75D5D043D10A43AF08E4EF
:050A3800F5BAD2AF2267
:100A3D0075845075D2FE75D3E043D1A043AF10E459
:050A4D00F5BAD2AF2252
:10095B00E4FE53ACFD74092EF8E6F5ADAFAC5307CE
:0B096B0002EF60F853ACFD0EBE06EA80
:01097600225E
:10097700E4FE5384FD740F2EF8E6F585AF84530724
:0B09870002EF60F85384FD0EBE06EA8C
:010992002242
:1009FC001209E36010F599D2002000FD740129F969
:060A0C00E43AFA80EB223F
:100A12001209E36010F59BD2012001FD740129F94E
:060A2200E43AFA80EB2229
:1009C900AD07AC06538EEF538EF7438E048CD6AF2A
:0A09D900058FD753AFFB438E1022A9
:10084800BF020C438E017FD07EFF1209C9801BC2F4
:100858008E538EFE438E405389BF5389CF758DFFCB
:10086800758BD0C2AB538FFDD28EE598543F444070
:10087800F598D2ACD29C53A23F43A280C200E4F5C3
:0408880017F5152229
:10093900EF6402701C7FD07EFF1209C9539A7F436E
:10094900AF01439A1053BAFE43BA01C201F518F533
:02095900162264
:03000000020A628F
:0C0A6200787FE4F6D8FD75816002088CF6
:1009E300BB010689828A83E0225002E722BBFE0212
:0909F300E32289828A83E4932245
:00000001FF
