:10087F00535443313546324B363053322055415263
:10088F00543120546573742050726772616D6D65B9
:10089F00210D0A00535443313546324B3630533213
:1008AF002055415254322054657374205072677230
:0808BF00616D6D65210D0A0059
:10080000E4F593F594F591F592F595F596F5B1F536
:10081000B2F5B3F5B4F5C9F5CAF5CBF5CCF5E1F50C
:10082000E27F011208C77F0212096FD2AF7BFF7A05
:1008300008797F120A327BFF7A0879A3120A48E509
:10084000166514601920001674212516F8E6F5992E
:10085000D2000516E516C394204003E4F516E5170B
:10086000651560DB2001D874412517F8E6F59BD2A9
:0F087000010517E517C3942040C5E4F51780C0B4
:0F0A88007DA57C06ED1D70011C144C70F7DFF18D
:010A9700223C
:100A5E0075AC5075D4FF75D5D043D10A43AF08E4B9
:050A6E00F5BAD2AF2231
:100A730075845075D2FE75D3E043D1A043AF10E423
:050A8300F5BAD2AF221C
:10099100E4FE53ACFD74082EF8E6F5ADAFAC530799
:0B09A10002EF60F853ACFD0EBE06EA4A
:0109AC002228
:1009AD00E4FE5384FD740E2EF8E6F585AF845307EF
:0B09BD0002EF60F85384FD0EBE06EA56
:0109C800220C
:03008B000209C99E
:0909C900C0E0C0D075D000C007E9
:0B09D200AFAC530701BF010353ACFEA4
:0709DD00D007D0D0D0E032BA
:030093000209E47B
:0909E400C0E0C0D075D000C007CE
:0B09ED00AF84530701BF01035384FED9
:0709F800D007D0D0D0E0329F
:100A3200120A196010F599D2002000FD740129F9FB
:060A4200E43AFA80EB2209
:100A4800120A196010F59BD2012001FD740129F9E1
:060A5800E43AFA80EB22F3
:1009FF00AD07AC06538EEF538EF7438E048CD6AFF4
:0A0A0F00058FD753AFFB438E102272
:1008C700BF020C438E017FD07EFF1209FF801BC23F
:1008D7008E538EFE438E405389BF5389CF758DFF4C
:1008E700758BD0C2AB538FFDD28EE598543F4440F1
:1008F700F598D2ACD29C53A23F43A280C200E4F544
:0409070016F51422AB
:10096F00EF6402701C7FD07EFF1209FF539A7F4302
:10097F00AF01439A1053BAFE43BA01C201F517F5FE
:02098F0015222F
:030023000209408F
:10094000C0E0C0D075D000C000309815C2987421A6
:100950002514F8A6990514E514C3942040037514D2
:0F09600000309904C299C200D000D0D0D0E0324C
:0300430002090BA4
:10090B00C0E0C0D075D000C000E59A30E016539A15
:10091B00FE74412515F8A69B0515E515C3942040DB
:10092B0003751500E59A30E105539AFDC201D0001D
:05093B00D0D0D0E03235
:03000000020A9859
:0C0A9800787FE4F6D8FD7581600208004C
:100A1900BB010689828A83E0225002E722BBFE02DB
:090A2900E32289828A83E493220E
:00000001FF
