:10115D00535443313546324B36305332205541527C
:10116D00543120546573742050726772616D6D65D2
:10117D00210D0A00535443313546324B363053322C
:10118D002055415254322054657374205072677249
:0F119D00616D6D65210D0A0073746174653A0010
:061480000424000000003E
:100B5C00E4F593F594F591F592F595F596F5B1F5D7
:100B6C00B2F5B3F5B4F5C9F5CAF5CBF5CCF5E1F5AD
:100B7C00E2120FAF7F011211EF7F0212133A121320
:100B8C00F512140AD2AF7BFF7A11795D1213C97B6F
:100B9C00FF7A1179811213DF7B9B7A007D107C0028
:100BAC00E4FF1211AC7B9B7A007D107C007F01125C
:100BBC0011AC7B9B7A007D107C007F021211AC7B08
:100BCC009B7A007D107C007F031211AC121394C22F
:100BDC00A0E522B402FB752201E52B75F0148424E8
:100BEC0002F53DE433F53CE52D75F014842402F553
:100BFC003FE433F53EE52F75F014842402F541E40F
:100C0C0033F540E5307003121452E530B401031291
:100C1C001430E530B40203121441E4F522F52375C7
:100C2C004AFF754B11754CA5FB7A00794212085C92
:100C3C00AE3CAF3D7C007D0A120CFAEF2430F54837
:100C4C00AE3CAF3D7C007D0A120CFAED2430F54928
:100C5C00754A20AE3EAF3F7C007D0A120CFAEF24A1
:100C6C0030F54BAE3EAF3F7C007D0A120CFAED2402
:100C7C0030F54C754D20AE40AF417C007D0A120C16
:100C8C00FAEF2430F54EAE40AF417C007D0A120CD9
:100C9C00FAED2430F54F75500D75510A7B007A0032
:080CAC0079421213C9020BDDAD
:10139400C28CD2A0D2A95389FC5389FB538FFE433C
:0B13A4008E80758CEE758AB9D28C2209
:03000B00020E0BD7
:100E0B00C0E0C0F0C083C082C0D075D000C000C0AD
:100E1B0001C002C003C004C005C006C007E52724FB
:100E2B0001F527E43526F526E43525F525E43524AB
:100E3B00F524AE3CAF3DE4FCFDAB27AA26A925A8C3
:100E4B0024C3120DB250028001C392F8AE3EAF3FE5
:100E5B00E4FCFDAB27AA26A925A824C3120DB2508A
:100E6B00028001C39297AE40AF41E4FCFDAB27AAD1
:100E7B0026A925A824C3120DB250028001C3929655
:100E8B00AE3EAF3FE4FCFDAB27AA26A925A824C3A1
:100E9B00120DB250028001C392F9AE40AF41E4FC97
:100EAB00FDAB27AA26A925A824C3120DB250028098
:100EBB0001C392FAE47F64FEFDFCAB27AA26A925A9
:100ECB00A824C3120DB2400C75270075260075259A
:100EDB0000752400D007D006D005D004D003D00273
:0F0EEB00D001D000D0D0D082D083D0F0D0E03270
:100FAF00E4F54CF54BF54DF54EF54FF547754840CB
:100FBF00F549754AC0FB7A007947FF120EFA53B113
:100FCF007F53B27FE4F54CF54BF54DF54EF54FF5EC
:100FDF0047754840F549754AC0FB7A0079477F014C
:100FEF00120EFA5395FD5396FDE4F54CF54BF54D66
:100FFF00F54EF54FF547754840F549754AC0FB7AF0
:10100F000079477F02120EFA5395FB5396FBE4F5D6
:10101F004CF54BF54DF54EF54FF547754840F549F5
:10102F00754AC0FB7A0079477F03120EFA5395F782
:10103F005396F775D6FF75D7D4758E147D007C0146
:0B104F007F101212F443F58053F5BF30
:01105A002273
:0F1463007DA57C06ED1D70011C144C70F7DFF1A8
:011472002257
:0300230002126D59
:10126D00C0E0C0D075D000C000C00730981CC29837
:10127D00AF99E51825E0245BF8760008A607051858
:10128D00E518C394204003751800309904C299C223
:0A129D0009D007D000D0D0D0E03215
:030043000213188D
:10131800C0E0E59A30E00E539AFE859B0985099B4B
:10132800E59A30E1FBE59A30E105539AFDC20AD00F
:02133800E032A1
:03008B000210E779
:0B10E700C0E0C0D075D000C000C00702
:1010F200AFAC530701EF6401705885AD0AE50AB43D
:101102004115E5237011E522700D75220105238535
:101112000AADE5AC30E1FBE50AB44213E522B401C5
:101122000E75220275230075AD50E5AC30E1FBE58A
:1011320022B4011BE523C3940C501474282523F810
:10114200A60A0523E5232430F5ADE5AC30E1FB53D7
:02115200ACFEF1
:09115400D007D000D0D0D0E03269
:030093000212CE88
:0912CE00C0E0C0D075D000C007DB
:1012D700AF84530701BF010E5384FE85850B850B31
:0612E70085E58430E1FB07
:0712ED00D007D0D0D0E032A1
:1013F50075AC5075D4FF75D5D043D10A43AF08E419
:05140500F5BAD2AF2290
:10140A0075845075D2FF75D3D043D1A043AF10E491
:05141A00F5BAD2AF227B
:10135C00E4FE53ACFD740C2EF8E6F5ADAFAC5307C0
:0B136C0002EF60F853ACFD0EBE06EA75
:011377002253
:10137800E4FE5384FD74122EF8E6F585AF84530716
:0B13880002EF60F85384FD0EBE06EA81
:011393002237
:1013C900120CB46010F599D2092009FD740129F9AC
:0613D900E43AFA80EB2269
:1013DF00120CB46010F59BD20A200AFD740129F992
:0613EF00E43AFA80EB2253
:1013AF00AD07AC06538EEF538EF7438E048CD6AF3A
:0A13BF00058FD753AFFB438E1022B9
:1011EF00BF020C438E017FD07EFF1213AF801BC254
:1011FF008E538EFE438E405389BF5389CF758DFF1B
:10120F00758BD0C2AB538FFDD28EE598543F4440BF
:10121F00F598D2ACD29C53A23FC209E4F51AF51847
:01122F00229C
:10133A00EF6402701C7FD07EFF1213AF539A7F4373
:10134A00AF01439A1053BAFE43BA01C20AF51BF51C
:02135A00192256
:0212F400A90748
:1012F60043BA807BF27AFF8B828A83E9F07BF08B9C
:1013060082ECF00BBB00010A8B828A83EDF053BAA4
:011316007F57
:0113170022B3
:020EFA008F5017
:100EFC0043BA80E55075F010A42400FFE5F034FFF0
:100F0C00AD07FC120D4FE5F08D828C83F00DBD000A
:100F1C00010C120D4F8D828C83F00DBD00010C90D5
:100F2C000002120D7AE5F08D828C83F00DBD00016C
:100F3C000C900002120D7A8D828C83F00DBD000195
:100F4C000C900006120CCD25E025E05404FF900017
:100F5C0005120CCD54084FFF900008120CCDFE2545
:100F6C00E054024FFF900007120CCD54014F8D82BC
:100F7C008C83F0AF507401A807088002C333D8FCEF
:100F8C00FF42F5900004120CCD5401FEAD50A805A3
:100F9C00088002C333D8FCFEEFF455F14EF5F15343
:020FAC00BA7F0A
:010FAE002220
:0411AC008C478D4897
:1011B00043BA80EF75F010A42400FFE5F034FFADD2
:1011C00007FCE5478D828C83F00DBD00010C8D82FC
:1011D0008C83E548F00DBD00010C8D828C83EAF014
:0E11E0000DBD00010C8D828C83EBF053BA7FA5
:0111EE0022DE
:0300B30002123006
:10123000C0E0E5F630E60353F6BFE5F630E00353D1
:10124000F6FEE5F630E10353F6FDE5F630E2035332
:10125000F6FBE5F630E30353F6F7E5F630E4035327
:0D126000F6EFE5F630E50353F6DFD0E0329F
:0300BB00021473B9
:0D147300C0E0E5F730E00353F7FED0E032B3
:10141F00C2E8C2E9C2EAC2EBC2ECC2EDC2EEC2EF51
:01142F00229A
:10143000D2E8C2E9D2EAC2EBD2ECC2EDD2EEC2EF00
:011440002289
:10144100C2E8D2E9C2EAD2EBC2ECD2EDC2EED2EFEF
:011451002278
:10145200C2E8C2E9C2EAC2EBC2ECC2EDC2EEC2EF1E
:011462002267
:0300000002105B90
:0C105B00787FE4F6D8FD75819A0210A29F
:100CB400BB010689828A83E0225002E722BBFE023E
:090CC400E32289828A83E4932271
:100CCD00BB010CE58229F582E5833AF583E02250DC
:100CDD0006E92582F8E622BBFE06E92582F8E22226
:0D0CED00E58229F582E5833AF583E4932240
:100CFA00BC000BBE0029EF8DF084FFADF022E4CCDE
:100D0A00F875F008EF2FFFEE33FEEC33FCEE9DECA6
:100D1A00984005FCEE9DFE0FD5F0E9E4CEFD22EDEC
:100D2A00F8F5F0EE8420D21CFEADF075F008EF2F36
:100D3A00FFED33FD4007985006D5F0F222C398FD27
:050D4A000FD5F0EA22C4
:100D4F00BB010A89828A83E0F5F0A3E0225006876F
:100D5F00F009E71922BBFE07E3F5F009E319228931
:0B0D6F00828A83E493F5F07401932264
:100D7A00BB0110E58229F582E5833AF583E0F5F0B7
:100D8A00A3E0225009E92582F886F008E622BBFE94
:100D9A000AE92582F8E2F5F008E222E5832AF583DA
:080DAA00E993F5F0A3E993229F
:100DB200EB9FF5F0EA9E42F0E99D42F0E89C45F097
:010DC200220E
:10080000E556244AF8E60556227847300702784A2A
:10081000E475F001120DD5020CB42000EB7F2ED24E
:10082000008018EF540F2490D43440D4FF30040BD0
:10083000EF24BFB41A0050032461FFE5576002158E
:1008400057055AE55A7002055930070D7847E47587
:10085000F001120DD5EF020DC30212A77403D207E7
:100860008003E4C207F5568B478A488949E4F55767
:10087000F559F55AE55760077F2012083B80F5755A
:1008800058FFC201C200C202C203C205C206C208AA
:10089000120809FF700D3007057F0012084CAF5A8F
:1008A000AE5922B4255FC2D5C204120809FF24D074
:1008B000B40A00501A75F00A785730D50508B6FF0B
:1008C0000106C6A426F620D5047002D20380D924DE
:1008D000CFB41A00EF5004C2E5D204020A4CD20190
:1008E00080C6D20080C0D20280BCD2D580BAD205E8
:1008F00080B47F2012083B2002077401B5570040E6
:10090000F1120800FF12083B020874D208D20680D8
:1009100095120800FB120800FA120800F94A4B7001
:1009200006791D7A0B7BFF20022EE557602A7E0098
:100930008E82758300120CCD60060EEE655870F045
:10094000C2D5EBC0E0EAC0E0E9C0E0EE120A93D005
:10095000E0F9D0E0FAD0E0FB120CB4FF60AAEBC0E3
:10096000E0EAC0E0E9C0E012083BD0E02401F9D0A1
:10097000E03400FAD0E0FBE5580460DCD558D980BB
:10098000877BFF7A0A798FD202809C791080027966
:1009900008C206C2088008D2D5790A8004790AC242
:1009A000D5E558047002F558E4FAFDFEFF12080080
:1009B000FC7B08200113120800FD7B1030000A1296
:1009C0000800FE120800FF7B20EC3382D592D55040
:1009D00013C3E43000069FFFE49EFEE42001039D64
:1009E000FDE49CFCE4CBF8C201EC700CCFCECDCC86
:1009F000E824F8F870F38017C3EF33FFEE33FEED11
:100A000033FDEC33FCEB33FB994002FB0FD8E9EBF1
:100A1000300105F8D0E0C448B201C0E00AEC4D4E08
:100A20004F78207B0070C2EAB5580040BCC0E0128D
:100A30000A95D0F0D0E0200104C4C0E0C4B201C0E7
:100A4000F0120824D0F0D5F0EB020874120DE5097D
:100A50001153098B5808E24C08DE42098F4F099761
:0F0A60004409974908F743099D550981460981C3
:100A6F00450981470B3D5008E62D08EA2E090D2B4D
:100A7F0008EE23090B200B262A08A64800000905BB
:100A8F003F3F3F00790AA2D5200314300509B91062
:100A9F00020404B9080104A2D52006025001042063
:100AAF0002689202B557005034C0E07F203003191E
:100ABF007F30A20272067205500F120AECC202C2F8
:100ACF0006C205C2087F30800F300503E9C0E0126F
:100ADF00083B300503D0E0F9D0E0B557CC3005170F
:100AEF007F30B9100C12083B7F583004077F788095
:100AFF0003B9080312083B3002057F2D02083B7F24
:100B0F00202008F87F2B2006F322920280CF286E38
:100B1F00756C6C2900D2011208003001F8C20178FF
:100B2F005730D50108F60208A62D50434958120830
:100B3F00002403B405004001E4900B389312082CF5
:0D0B4F00743A12082CD20375570402098B6A
:10106700020B5CE493A3F8E493A34003F68001F238
:1010770008DFF48029E493A3F85407240CC8C3338A
:10108700C4540F4420C8834004F456800146F6DF59
:10109700E4800B0102040810204080901480E47E55
:1010A700019360BCA3FF543F30E509541FFEE4934E
:1010B700A360010ECF54C025E060A840B8E493A315
:1010C700FAE493A3F8E493A3C8C582C8CAC583CA40
:1010D700F0A3C8C582C8CAC583CADFE9DEE780BEF8
:011486000065
:100DC300BB010689828A83F0225002F722BBFE010F
:020DD300F32209
:100DD500FAE6FB0808E6F925F0F618E6CA3AF6221F
:100DE500D083D082F8E4937012740193700DA3A39D
:100DF50093F8740193F5828883E4737402936860B1
:060E0500EFA3A3A380DFB0
:1012A700EFB40A07740D1212B2740A309811A89994
:1012B700B8130CC2983098FDA899C298B811F630A7
:0712C70099FDC299F599227F
:00000001FF
